:100000000C945C000C9479000C9479000C947900A9
:100010000C9479000C9479000C9479000C9479007C
:100020000C9479000C9479000C9479000C9479006C
:100030000C9479000C9479000C9479000C9479005C
:100040000C94FC000C9479000C9479000C947900C9
:100050000C9479000C9479000C9479000C9479003C
:100060000C9479000C947900000000080002010053
:100070000003040700000000000000000102040863
:100080001020408001020408102001020408102002
:10009000040404040404040402020202020203032E
:1000A0000303030300000000250028002B000000CC
:1000B0000000240027002A0011241FBECFEFD8E043
:1000C000DEBFCDBF11E0A0E0B1E0EEE3F5E002C09D
:1000D00005900D92A431B107D9F721E0A4E1B1E078
:1000E00001C01D92A132B207E1F70E9465020C9493
:1000F0009D020C940000CF93C2E061E08C2F0E941F
:10010000F501CF5FC930C9F761E08CE00E94F501CD
:1001100061E08DE0CF910C94F5010F931F93CF9385
:10012000DF93C0E0D0E08C01000F111F00501F4F83
:10013000F801608171810C2E02C0759567950A9453
:10014000E2F761708C2F8E5F0E942E022196C730DD
:10015000D10571F7DF91CF911F910F910895EF9223
:10016000FF920F931F93CF93DF93C9E3D0E09AE000
:10017000E92EF12CCE01B7010E9475027093150192
:1001800060931401909317018093160104E110E02D
:1001900061E08CE00E942E0260E08DE00E942E0261
:1001A00080911401909115010E948D006AE070E029
:1001B00080E090E00E94690161E08DE00E942E02E3
:1001C00060E08CE00E942E02809116019091170150
:1001D0000E948D006AE070E080E090E00E9469017A
:1001E00001501109A9F6219728F6DF91CF911F91AF
:1001F0000F91FF90EF9008951F920F920FB60F92FC
:1002000011242F933F938F939F93AF93BF9380912C
:10021000190190911A01A0911B01B0911C0130911C
:10022000180123E0230F2D3720F40196A11DB11DE5
:1002300005C026E8230F0296A11DB11D20931801C9
:100240008093190190931A01A0931B01B0931C0194
:1002500080911D0190911E01A0911F01B09120017C
:100260000196A11DB11D80931D0190931E01A093C5
:100270001F01B0932001BF91AF919F918F913F914A
:100280002F910F900FBE0F901F9018953FB7F894C5
:1002900080911D0190911E01A0911F01B09120013C
:1002A00026B5A89B05C02F3F19F00196A11DB11DD1
:1002B0003FBF6627782F892F9A2F620F711D811DEE
:1002C000911D42E0660F771F881F991F4A95D1F74D
:1002D0000895CF92DF92EF92FF92CF93DF936B015D
:1002E0007C010E944601EB01C114D104E104F10438
:1002F00089F00E9474020E9446016C1B7D0B683ECF
:10030000734090F381E0C81AD108E108F108C851A0
:10031000DC4FEACFDF91CF91FF90EF90DF90CF904D
:100320000895789484B5826084BD84B5816084BD6D
:1003300085B5826085BD85B5816085BDEEE6F0E05E
:10034000808181608083E1E8F0E0108280818260BA
:100350008083808181608083E0E8F0E0808181603B
:100360008083E1EBF0E0808184608083E0EBF0E06B
:10037000808181608083EAE7F0E08081846080830F
:1003800080818260808380818160808380818068B9
:1003900080831092C1000895833081F028F4813069
:1003A00099F08230A1F008958730A9F08830B9F033
:1003B0008430D1F4809180008F7D03C080918000D3
:1003C0008F7780938000089584B58F7702C084B5BD
:1003D0008F7D84BD08958091B0008F7703C0809198
:1003E000B0008F7D8093B0000895CF93DF9390E0AD
:1003F000FC01E458FF4F2491FC01E057FF4F84912A
:10040000882349F190E0880F991FFC01E255FF4FC6
:10041000A591B4918C559F4FFC01C591D4919FB784
:10042000611108C0F8948C91209582238C93888167
:1004300082230AC0623051F4F8948C91322F3095A7
:1004400083238C938881822B888304C0F8948C91B9
:10045000822B8C939FBFDF91CF9108950F931F93B1
:10046000CF93DF931F92CDB7DEB7282F30E0F9018D
:10047000E859FF4F8491F901E458FF4F1491F901B5
:10048000E057FF4F04910023C9F0882321F06983CE
:100490000E94CC016981E02FF0E0EE0FFF1FEC55C8
:1004A000FF4FA591B4919FB7F8948C91611103C04F
:1004B0001095812301C0812B8C939FBF0F90DF91FA
:1004C000CF911F910F91089508950E9491010E946C
:1004D00064020E947B00C0E0D0E00E94AF00209741
:1004E000E1F30E940000F9CF089597FB072E16F460
:1004F000009407D077FD09D00E94890207FC05D03F
:100500003EF4909581959F4F0895709561957F4F2A
:100510000895AA1BBB1B51E107C0AA1FBB1FA6174A
:10052000B70710F0A61BB70B881F991F5A95A9F79C
:0E05300080959095BC01CD010895F894FFCF01
:10053E003F0006005B004F0066006D007D00070067
:04054E007F006F00BB
:00000001FF
